{"abi":[{"type":"constructor","inputs":[{"name":"_carbonTokenAddress","type":"address","internalType":"address"},{"name":"_verifierProofAddress","type":"address","internalType":"address"}],"stateMutability":"nonpayable"},{"type":"function","name":"addressToClaims","inputs":[{"name":"","type":"address","internalType":"address"},{"name":"","type":"uint256","internalType":"uint256"}],"outputs":[{"name":"id","type":"uint256","internalType":"uint256"},{"name":"organisationAddress","type":"address","internalType":"address"},{"name":"demandedCarbonCredits","type":"uint256","internalType":"uint256"},{"name":"voting_end_time","type":"uint256","internalType":"uint256"},{"name":"status","type":"uint256","internalType":"uint256"},{"name":"description","type":"string","internalType":"string"},{"name":"latitudes","type":"uint256","internalType":"uint256"},{"name":"longitudes","type":"uint256","internalType":"uint256"},{"name":"yes_votes","type":"uint256","internalType":"uint256"},{"name":"no_votes","type":"uint256","internalType":"uint256"},{"name":"total_votes","type":"uint256","internalType":"uint256"}],"stateMutability":"view"},{"type":"function","name":"addressToLendRequests","inputs":[{"name":"","type":"address","internalType":"address"},{"name":"","type":"uint256","internalType":"uint256"}],"outputs":[{"name":"id","type":"uint256","internalType":"uint256"},{"name":"borrowerAddress","type":"address","internalType":"address"},{"name":"lenderAddress","type":"address","internalType":"address"},{"name":"carbonCredits","type":"uint256","internalType":"uint256"},{"name":"response","type":"uint256","internalType":"uint256"},{"name":"interestRate","type":"uint256","internalType":"uint256"},{"name":"timeOfissue","type":"uint256","internalType":"uint256"},{"name":"eligibilityScore","type":"uint256","internalType":"uint256"},{"name":"proofData","type":"bytes","internalType":"bytes"},{"name":"status","type":"uint256","internalType":"uint256"},{"name":"recommendation","type":"uint256","internalType":"uint256"}],"stateMutability":"view"},{"type":"function","name":"addressToLendRequestsLenderPOV","inputs":[{"name":"","type":"address","internalType":"address"},{"name":"","type":"uint256","internalType":"uint256"}],"outputs":[{"name":"id","type":"uint256","internalType":"uint256"},{"name":"borrowerAddress","type":"address","internalType":"address"},{"name":"lenderAddress","type":"address","internalType":"address"},{"name":"carbonCredits","type":"uint256","internalType":"uint256"},{"name":"response","type":"uint256","internalType":"uint256"},{"name":"interestRate","type":"uint256","internalType":"uint256"},{"name":"timeOfissue","type":"uint256","internalType":"uint256"},{"name":"eligibilityScore","type":"uint256","internalType":"uint256"},{"name":"proofData","type":"bytes","internalType":"bytes"},{"name":"status","type":"uint256","internalType":"uint256"},{"name":"recommendation","type":"uint256","internalType":"uint256"}],"stateMutability":"view"},{"type":"function","name":"addressToOrganisation","inputs":[{"name":"","type":"address","internalType":"address"}],"outputs":[{"name":"name","type":"string","internalType":"string"},{"name":"description","type":"string","internalType":"string"},{"name":"profilePhotoipfsHashCode","type":"string","internalType":"string"},{"name":"walletAddress","type":"address","internalType":"address"},{"name":"timesBorrowed","type":"uint256","internalType":"uint256"},{"name":"timesLent","type":"uint256","internalType":"uint256"},{"name":"totalCarbonCreditsLent","type":"uint256","internalType":"uint256"},{"name":"totalCarbonCreditsBorrowed","type":"uint256","internalType":"uint256"},{"name":"totalCarbonCreditsReturned","type":"uint256","internalType":"uint256"},{"name":"emissions","type":"uint256","internalType":"uint256"},{"name":"reputationScore","type":"uint256","internalType":"uint256"}],"stateMutability":"view"},{"type":"function","name":"carbonToken","inputs":[],"outputs":[{"name":"","type":"address","internalType":"contract CarbonCredit"}],"stateMutability":"view"},{"type":"function","name":"carbonTokenAddress","inputs":[],"outputs":[{"name":"","type":"address","internalType":"address"}],"stateMutability":"view"},{"type":"function","name":"claimIdToClaim","inputs":[{"name":"","type":"uint256","internalType":"uint256"}],"outputs":[{"name":"id","type":"uint256","internalType":"uint256"},{"name":"organisationAddress","type":"address","internalType":"address"},{"name":"demandedCarbonCredits","type":"uint256","internalType":"uint256"},{"name":"voting_end_time","type":"uint256","internalType":"uint256"},{"name":"status","type":"uint256","internalType":"uint256"},{"name":"description","type":"string","internalType":"string"},{"name":"latitudes","type":"uint256","internalType":"uint256"},{"name":"longitudes","type":"uint256","internalType":"uint256"},{"name":"yes_votes","type":"uint256","internalType":"uint256"},{"name":"no_votes","type":"uint256","internalType":"uint256"},{"name":"total_votes","type":"uint256","internalType":"uint256"}],"stateMutability":"view"},{"type":"function","name":"claimIdToVoters","inputs":[{"name":"","type":"uint256","internalType":"uint256"},{"name":"","type":"uint256","internalType":"uint256"}],"outputs":[{"name":"","type":"address","internalType":"address"}],"stateMutability":"view"},{"type":"function","name":"claimIdToVotersNo","inputs":[{"name":"","type":"uint256","internalType":"uint256"},{"name":"","type":"uint256","internalType":"uint256"}],"outputs":[{"name":"","type":"address","internalType":"address"}],"stateMutability":"view"},{"type":"function","name":"claimIdToVotersYes","inputs":[{"name":"","type":"uint256","internalType":"uint256"},{"name":"","type":"uint256","internalType":"uint256"}],"outputs":[{"name":"","type":"address","internalType":"address"}],"stateMutability":"view"},{"type":"function","name":"createClaim","inputs":[{"name":"_demandedCarbonCredits","type":"uint256","internalType":"uint256"},{"name":"_voting_end_time","type":"uint256","internalType":"uint256"},{"name":"_description","type":"string","internalType":"string"},{"name":"_latitudes","type":"uint256","internalType":"uint256"},{"name":"_longitudes","type":"uint256","internalType":"uint256"},{"name":"_proofIpfsHashCode","type":"string[]","internalType":"string[]"}],"outputs":[],"stateMutability":"nonpayable"},{"type":"function","name":"createLendRequest","inputs":[{"name":"_lenderAddress","type":"address","internalType":"address"},{"name":"_carbonCredits","type":"uint256","internalType":"uint256"},{"name":"_interestRate","type":"uint256","internalType":"uint256"},{"name":"a","type":"uint256[2]","internalType":"uint256[2]"},{"name":"b","type":"uint256[2][2]","internalType":"uint256[2][2]"},{"name":"c","type":"uint256[2]","internalType":"uint256[2]"},{"name":"input","type":"uint256[]","internalType":"uint256[]"}],"outputs":[],"stateMutability":"nonpayable"},{"type":"function","name":"createOrganisation","inputs":[{"name":"_name","type":"string","internalType":"string"},{"name":"_description","type":"string","internalType":"string"},{"name":"_profilePhotoipfsHashCode","type":"string","internalType":"string"},{"name":"_walletAddress","type":"address","internalType":"address"},{"name":"_timesBorrowed","type":"uint256","internalType":"uint256"},{"name":"_timesLent","type":"uint256","internalType":"uint256"},{"name":"_totalCarbonCreditsLent","type":"uint256","internalType":"uint256"},{"name":"_totalCarbonCreditsBorrowed","type":"uint256","internalType":"uint256"},{"name":"_totalCarbonCreditsReturned","type":"uint256","internalType":"uint256"},{"name":"_emissions","type":"uint256","internalType":"uint256"},{"name":"_reputationScore","type":"uint256","internalType":"uint256"}],"outputs":[],"stateMutability":"nonpayable"},{"type":"function","name":"getAllOrganisationDetails","inputs":[],"outputs":[{"name":"","type":"tuple[]","internalType":"struct OrganisationPublicView[]","components":[{"name":"name","type":"string","internalType":"string"},{"name":"description","type":"string","internalType":"string"},{"name":"profilePhotoipfsHashCode","type":"string","internalType":"string"},{"name":"totalCarbonCredits","type":"uint256","internalType":"uint256"},{"name":"timesLent","type":"uint256","internalType":"uint256"},{"name":"walletAddress","type":"address","internalType":"address"}]}],"stateMutability":"view"},{"type":"function","name":"getBalanceOfOrganisation","inputs":[],"outputs":[{"name":"","type":"uint256","internalType":"uint256"}],"stateMutability":"view"},{"type":"function","name":"getClaimDetailsPublic","inputs":[{"name":"_claimId","type":"uint256","internalType":"uint256"}],"outputs":[{"name":"","type":"tuple","internalType":"struct ClaimPublicView","components":[{"name":"id","type":"uint256","internalType":"uint256"},{"name":"organisationAddress","type":"address","internalType":"address"},{"name":"demandedCarbonCredits","type":"uint256","internalType":"uint256"},{"name":"voting_end_time","type":"uint256","internalType":"uint256"},{"name":"status","type":"uint256","internalType":"uint256"},{"name":"description","type":"string","internalType":"string"},{"name":"latitudes","type":"uint256","internalType":"uint256"},{"name":"longitudes","type":"uint256","internalType":"uint256"},{"name":"proofIpfsHashCode","type":"string[]","internalType":"string[]"},{"name":"yes_votes","type":"uint256","internalType":"uint256"},{"name":"no_votes","type":"uint256","internalType":"uint256"},{"name":"total_votes","type":"uint256","internalType":"uint256"}]}],"stateMutability":"view"},{"type":"function","name":"getClaimsByStatus","inputs":[{"name":"_status","type":"uint256","internalType":"uint256"}],"outputs":[{"name":"","type":"tuple[]","internalType":"struct ClaimPublicView[]","components":[{"name":"id","type":"uint256","internalType":"uint256"},{"name":"organisationAddress","type":"address","internalType":"address"},{"name":"demandedCarbonCredits","type":"uint256","internalType":"uint256"},{"name":"voting_end_time","type":"uint256","internalType":"uint256"},{"name":"status","type":"uint256","internalType":"uint256"},{"name":"description","type":"string","internalType":"string"},{"name":"latitudes","type":"uint256","internalType":"uint256"},{"name":"longitudes","type":"uint256","internalType":"uint256"},{"name":"proofIpfsHashCode","type":"string[]","internalType":"string[]"},{"name":"yes_votes","type":"uint256","internalType":"uint256"},{"name":"no_votes","type":"uint256","internalType":"uint256"},{"name":"total_votes","type":"uint256","internalType":"uint256"}]}],"stateMutability":"view"},{"type":"function","name":"getLendRequestDetails","inputs":[{"name":"_borrowerAddress","type":"address","internalType":"address"},{"name":"_requestId","type":"uint256","internalType":"uint256"}],"outputs":[{"name":"","type":"tuple","internalType":"struct LendRequest","components":[{"name":"id","type":"uint256","internalType":"uint256"},{"name":"borrowerAddress","type":"address","internalType":"address"},{"name":"lenderAddress","type":"address","internalType":"address"},{"name":"carbonCredits","type":"uint256","internalType":"uint256"},{"name":"response","type":"uint256","internalType":"uint256"},{"name":"interestRate","type":"uint256","internalType":"uint256"},{"name":"timeOfissue","type":"uint256","internalType":"uint256"},{"name":"eligibilityScore","type":"uint256","internalType":"uint256"},{"name":"proofData","type":"bytes","internalType":"bytes"},{"name":"status","type":"uint256","internalType":"uint256"},{"name":"recommendation","type":"uint256","internalType":"uint256"}]}],"stateMutability":"view"},{"type":"function","name":"getMyOrganisationDetails","inputs":[],"outputs":[{"name":"","type":"tuple","internalType":"struct Organisation","components":[{"name":"name","type":"string","internalType":"string"},{"name":"description","type":"string","internalType":"string"},{"name":"profilePhotoipfsHashCode","type":"string","internalType":"string"},{"name":"walletAddress","type":"address","internalType":"address"},{"name":"timesBorrowed","type":"uint256","internalType":"uint256"},{"name":"timesLent","type":"uint256","internalType":"uint256"},{"name":"totalCarbonCreditsLent","type":"uint256","internalType":"uint256"},{"name":"totalCarbonCreditsBorrowed","type":"uint256","internalType":"uint256"},{"name":"totalCarbonCreditsReturned","type":"uint256","internalType":"uint256"},{"name":"emissions","type":"uint256","internalType":"uint256"},{"name":"reputationScore","type":"uint256","internalType":"uint256"}]}],"stateMutability":"view"},{"type":"function","name":"getOrganisationDetails","inputs":[{"name":"_organisationAddress","type":"address","internalType":"address"}],"outputs":[{"name":"","type":"tuple","internalType":"struct Organisation","components":[{"name":"name","type":"string","internalType":"string"},{"name":"description","type":"string","internalType":"string"},{"name":"profilePhotoipfsHashCode","type":"string","internalType":"string"},{"name":"walletAddress","type":"address","internalType":"address"},{"name":"timesBorrowed","type":"uint256","internalType":"uint256"},{"name":"timesLent","type":"uint256","internalType":"uint256"},{"name":"totalCarbonCreditsLent","type":"uint256","internalType":"uint256"},{"name":"totalCarbonCreditsBorrowed","type":"uint256","internalType":"uint256"},{"name":"totalCarbonCreditsReturned","type":"uint256","internalType":"uint256"},{"name":"emissions","type":"uint256","internalType":"uint256"},{"name":"reputationScore","type":"uint256","internalType":"uint256"}]}],"stateMutability":"view"},{"type":"function","name":"getUserClaims","inputs":[],"outputs":[{"name":"","type":"tuple[]","internalType":"struct Claim[]","components":[{"name":"id","type":"uint256","internalType":"uint256"},{"name":"organisationAddress","type":"address","internalType":"address"},{"name":"demandedCarbonCredits","type":"uint256","internalType":"uint256"},{"name":"voting_end_time","type":"uint256","internalType":"uint256"},{"name":"status","type":"uint256","internalType":"uint256"},{"name":"description","type":"string","internalType":"string"},{"name":"latitudes","type":"uint256","internalType":"uint256"},{"name":"longitudes","type":"uint256","internalType":"uint256"},{"name":"yes_votes","type":"uint256","internalType":"uint256"},{"name":"no_votes","type":"uint256","internalType":"uint256"},{"name":"total_votes","type":"uint256","internalType":"uint256"},{"name":"proofIpfsHashCode","type":"string[]","internalType":"string[]"}]}],"stateMutability":"view"},{"type":"function","name":"getUserLendRequests","inputs":[],"outputs":[{"name":"","type":"tuple[]","internalType":"struct LendRequest[]","components":[{"name":"id","type":"uint256","internalType":"uint256"},{"name":"borrowerAddress","type":"address","internalType":"address"},{"name":"lenderAddress","type":"address","internalType":"address"},{"name":"carbonCredits","type":"uint256","internalType":"uint256"},{"name":"response","type":"uint256","internalType":"uint256"},{"name":"interestRate","type":"uint256","internalType":"uint256"},{"name":"timeOfissue","type":"uint256","internalType":"uint256"},{"name":"eligibilityScore","type":"uint256","internalType":"uint256"},{"name":"proofData","type":"bytes","internalType":"bytes"},{"name":"status","type":"uint256","internalType":"uint256"},{"name":"recommendation","type":"uint256","internalType":"uint256"}]}],"stateMutability":"view"},{"type":"function","name":"getUserLendRequestsLenderPOV","inputs":[],"outputs":[{"name":"","type":"tuple[]","internalType":"struct LendRequest[]","components":[{"name":"id","type":"uint256","internalType":"uint256"},{"name":"borrowerAddress","type":"address","internalType":"address"},{"name":"lenderAddress","type":"address","internalType":"address"},{"name":"carbonCredits","type":"uint256","internalType":"uint256"},{"name":"response","type":"uint256","internalType":"uint256"},{"name":"interestRate","type":"uint256","internalType":"uint256"},{"name":"timeOfissue","type":"uint256","internalType":"uint256"},{"name":"eligibilityScore","type":"uint256","internalType":"uint256"},{"name":"proofData","type":"bytes","internalType":"bytes"},{"name":"status","type":"uint256","internalType":"uint256"},{"name":"recommendation","type":"uint256","internalType":"uint256"}]}],"stateMutability":"view"},{"type":"function","name":"handleVotingResult","inputs":[{"name":"_claimId","type":"uint256","internalType":"uint256"}],"outputs":[],"stateMutability":"nonpayable"},{"type":"function","name":"lendrequestIdToLendRequest","inputs":[{"name":"","type":"uint256","internalType":"uint256"}],"outputs":[{"name":"id","type":"uint256","internalType":"uint256"},{"name":"borrowerAddress","type":"address","internalType":"address"},{"name":"lenderAddress","type":"address","internalType":"address"},{"name":"carbonCredits","type":"uint256","internalType":"uint256"},{"name":"response","type":"uint256","internalType":"uint256"},{"name":"interestRate","type":"uint256","internalType":"uint256"},{"name":"timeOfissue","type":"uint256","internalType":"uint256"},{"name":"eligibilityScore","type":"uint256","internalType":"uint256"},{"name":"proofData","type":"bytes","internalType":"bytes"},{"name":"status","type":"uint256","internalType":"uint256"},{"name":"recommendation","type":"uint256","internalType":"uint256"}],"stateMutability":"view"},{"type":"function","name":"organisationIDToOrganisation","inputs":[{"name":"","type":"uint256","internalType":"uint256"}],"outputs":[{"name":"name","type":"string","internalType":"string"},{"name":"description","type":"string","internalType":"string"},{"name":"profilePhotoipfsHashCode","type":"string","internalType":"string"},{"name":"walletAddress","type":"address","internalType":"address"},{"name":"timesBorrowed","type":"uint256","internalType":"uint256"},{"name":"timesLent","type":"uint256","internalType":"uint256"},{"name":"totalCarbonCreditsLent","type":"uint256","internalType":"uint256"},{"name":"totalCarbonCreditsBorrowed","type":"uint256","internalType":"uint256"},{"name":"totalCarbonCreditsReturned","type":"uint256","internalType":"uint256"},{"name":"emissions","type":"uint256","internalType":"uint256"},{"name":"reputationScore","type":"uint256","internalType":"uint256"}],"stateMutability":"view"},{"type":"function","name":"paybackLendRequest","inputs":[{"name":"_requestId","type":"uint256","internalType":"uint256"}],"outputs":[],"stateMutability":"nonpayable"},{"type":"function","name":"recordOrganisationEmissions","inputs":[{"name":"_emissions","type":"uint256","internalType":"uint256"}],"outputs":[],"stateMutability":"nonpayable"},{"type":"function","name":"respondToLendRequest","inputs":[{"name":"_requestId","type":"uint256","internalType":"uint256"},{"name":"_response","type":"uint256","internalType":"uint256"}],"outputs":[],"stateMutability":"nonpayable"},{"type":"function","name":"updateOrganisationDetails","inputs":[{"name":"_name","type":"string","internalType":"string"},{"name":"_description","type":"string","internalType":"string"},{"name":"_profilePhotoipfsHashCode","type":"string","internalType":"string"},{"name":"_totalCarbonCredits","type":"uint256","internalType":"uint256"}],"outputs":[],"stateMutability":"nonpayable"},{"type":"function","name":"verifier","inputs":[],"outputs":[{"name":"","type":"address","internalType":"contract IVerifier"}],"stateMutability":"view"},{"type":"function","name":"verifierProofAddress","inputs":[],"outputs":[{"name":"","type":"address","internalType":"address"}],"stateMutability":"view"},{"type":"function","name":"vote","inputs":[{"name":"_claimId","type":"uint256","internalType":"uint256"},{"name":"_vote","type":"bool","internalType":"bool"}],"outputs":[],"stateMutability":"nonpayable"}],"bytecode":{"object":"0x60806040525f6001555f6002555f600355348015601a575f5ffd5b506040516145d93803806145d98339810160408190526037916099565b600480546001600160a01b039384166001600160a01b031991821681179092556005805493909416928116831790935560108054841690911790555f805490921617905560c5565b80516001600160a01b03811681146094575f5ffd5b919050565b5f5f6040838503121560a9575f5ffd5b60b083607f565b915060bc60208401607f565b90509250929050565b614507806100d25f395ff3fe608060405234801561000f575f5ffd5b5060043610610200575f3560e01c80638ab7e6b511610123578063c9d27afe116100b8578063e416986611610088578063efd441d51161006e578063efd441d5146104cc578063f9faec00146104df578063fbd1b396146104f2575f5ffd5b8063e4169866146104a4578063e6767a4b146104b9575f5ffd5b8063c9d27afe14610458578063cd8692b01461046b578063cdc6a6181461047e578063d54f3a4114610491575f5ffd5b80639ae57ee3116100f35780639ae57ee3146104145780639d8eb84e1461042a578063bb2531541461043d578063c6fee31414610445575f5ffd5b80638ab7e6b5146103bb57806396b946d8146103ce57806397d4e30c146103ee57806399758ef214610401575f5ffd5b806330d4a63a1161019957806367aa46b51161016957806367aa46b5146103585780636f9c6eba1461036b57806382a71ef21461039557806388da10ae146103a8575f5ffd5b806330d4a63a146102f5578063437b78371461031f578063625d42011461033257806366f59cf714610345575f5ffd5b8063216e14fb116101d4578063216e14fb1461027757806323d4b9801461028c5780632b2a2a14146102b65780632b7ac3f3146102cb575f5ffd5b8062c5943914610204578063115dbad6146102195780631aa2d74d1461024257806320e0df2d14610262575b5f5ffd5b6102176102123660046135b4565b610505565b005b61022c6102273660046135b4565b610531565b604051610239919061370c565b60405180910390f35b6102556102503660046135b4565b61080c565b6040516102399190613725565b61026a610c0d565b6040516102399190613788565b61027f610ffc565b6040516102399190613847565b61029f61029a3660046135b4565b61123a565b6040516102399b9a99989796959493929190613944565b6102be61142a565b6040516102399190613a79565b5f546102dd906001600160a01b031681565b6040516001600160a01b039091168152602001610239565b610308610303366004613aeb565b611591565b6040516102399b9a99989796959493929190613b13565b61030861032d3660046135b4565b611695565b6102176103403660046135b4565b6116dc565b610217610353366004613c30565b611988565b610217610366366004613d4c565b611b15565b61037e610379366004613aeb565b611c85565b6040516102399b9a99989796959493929190613e28565b6010546102dd906001600160a01b031681565b6005546102dd906001600160a01b031681565b6102176103c9366004613e9b565b611d8d565b6103e16103dc366004613aeb565b611dcc565b6040516102399190613f31565b61037e6103fc366004613aeb565b611f86565b6102dd61040f366004613f43565b611f9f565b61041c611fd3565b604051908152602001610239565b6102dd610438366004613f43565b61205b565b6102be612074565b6102176104533660046135b4565b6121db565b610217610466366004613f70565b6124ab565b6004546102dd906001600160a01b031681565b61021761048c366004613fae565b6127df565b61037e61049f3660046135b4565b612bf8565b6104ac612c56565b604051610239919061407c565b61029f6104c7366004614149565b612edd565b6102176104da366004613f43565b612ef7565b6104ac6104ed366004614149565b613208565b6102dd610500366004613f43565b613499565b335f90815260066020526040812060098101805491928492610528908490614176565b90915550505050565b6105946040518061018001604052805f81526020015f6001600160a01b031681526020015f81526020015f81526020015f8152602001606081526020015f81526020015f8152602001606081526020015f81526020015f81526020015f81525090565b5f828152600e60205260409020805483146105f65760405162461bcd60e51b815260206004820152600f60248201527f436c61696d206e6f7420666f756e64000000000000000000000000000000000060448201526064015b60405180910390fd5b60088101546009820154600a830154600384015442101561061e57505f915081905080610631565b50505060088101546009820154600a8301545b60408051610180810182528554815260018601546001600160a01b03166020820152600286015491810191909152600385015460608201526004850154608082015260058501805460a08301919061068890614189565b80601f01602080910402602001604051908101604052809291908181526020018280546106b490614189565b80156106ff5780601f106106d6576101008083540402835291602001916106ff565b820191905f5260205f20905b8154815290600101906020018083116106e257829003601f168201915b50505050508152602001856006015481526020018560070154815260200185600b01805480602002602001604051908101604052809291908181526020015f905b828210156107e8578382905f5260205f2001805461075d90614189565b80601f016020809104026020016040519081016040528092919081815260200182805461078990614189565b80156107d45780601f106107ab576101008083540402835291602001916107d4565b820191905f5260205f20905b8154815290600101906020018083116107b757829003601f168201915b505050505081526020019060010190610740565b50505050815260200184815260200183815260200182815250945050505050919050565b60605f805b600254811015610849575f818152600e6020526040902060040154849003610841578161083d816141c1565b9250505b600101610811565b505f8167ffffffffffffffff81111561086457610864613b7f565b6040519080825280602002602001820160405280156108f857816020015b6108e56040518061018001604052805f81526020015f6001600160a01b031681526020015f81526020015f81526020015f8152602001606081526020015f81526020015f8152602001606081526020015f81526020015f81526020015f81525090565b8152602001906001900390816108825790505b5090505f805b600254811015610c03575f818152600e602090815260408083208151610180810183528154815260018201546001600160a01b031693810193909352600281015491830191909152600381015460608301526004810154608083015260058101805460a08401919061096f90614189565b80601f016020809104026020016040519081016040528092919081815260200182805461099b90614189565b80156109e65780601f106109bd576101008083540402835291602001916109e6565b820191905f5260205f20905b8154815290600101906020018083116109c957829003601f168201915b5050505050815260200160068201548152602001600782015481526020016008820154815260200160098201548152602001600a8201548152602001600b8201805480602002602001604051908101604052809291908181526020015f905b82821015610aed578382905f5260205f20018054610a6290614189565b80601f0160208091040260200160405190810160405280929190818152602001828054610a8e90614189565b8015610ad95780601f10610ab057610100808354040283529160200191610ad9565b820191905f5260205f20905b815481529060010190602001808311610abc57829003601f168201915b505050505081526020019060010190610a45565b5050505081525050905086816080015103610bfa575f816060015142118015610b195750608082015115155b9050604051806101800160405280835f0151815260200183602001516001600160a01b031681526020018360400151815260200183606001518152602001836080015181526020018360a0015181526020018360c0015181526020018360e001518152602001836101600151815260200182610b95575f610b9c565b8361010001515b815260200182610bac575f610bb3565b8361012001515b815260200182610bc3575f610bca565b8361014001515b815250858581518110610bdf57610bdf6141d9565b60200260200101819052508380610bf5906141c1565b945050505b506001016108fe565b5090949350505050565b60605f60015467ffffffffffffffff811115610c2b57610c2b613b7f565b604051908082528060200260200182016040528015610c9b57816020015b610c886040518060c001604052806060815260200160608152602001606081526020015f81526020015f81526020015f6001600160a01b031681525090565b815260200190600190039081610c495790505b5090505f805b600154811015610ff6575f818152600f602052604080822081516101608101909252805482908290610cd290614189565b80601f0160208091040260200160405190810160405280929190818152602001828054610cfe90614189565b8015610d495780601f10610d2057610100808354040283529160200191610d49565b820191905f5260205f20905b815481529060010190602001808311610d2c57829003601f168201915b50505050508152602001600182018054610d6290614189565b80601f0160208091040260200160405190810160405280929190818152602001828054610d8e90614189565b8015610dd95780601f10610db057610100808354040283529160200191610dd9565b820191905f5260205f20905b815481529060010190602001808311610dbc57829003601f168201915b50505050508152602001600282018054610df290614189565b80601f0160208091040260200160405190810160405280929190818152602001828054610e1e90614189565b8015610e695780601f10610e4057610100808354040283529160200191610e69565b820191905f5260205f20905b815481529060010190602001808311610e4c57829003601f168201915b50505050508152602001600382015f9054906101000a90046001600160a01b03166001600160a01b03166001600160a01b03168152602001600482015481526020016005820154815260200160068201548152602001600782015481526020016008820154815260200160098201548152602001600a8201548152505090506040518060c00160405280825f01518152602001826020015181526020018260400151815260200160105f9054906101000a90046001600160a01b03166001600160a01b03166370a0823184606001516040518263ffffffff1660e01b8152600401610f6391906001600160a01b0391909116815260200190565b602060405180830381865afa158015610f7e573d5f5f3e3d5ffd5b505050506040513d601f19601f82011682018060405250810190610fa291906141ed565b81526020018260a00151815260200182606001516001600160a01b0316815250848481518110610fd457610fd46141d9565b60200260200101819052508280610fea906141c1565b93505050600101610ca1565b50505090565b335f908152600760209081526040808320805482518185028101850190935280835260609492939192909184015b82821015611231575f8481526020908190206040805161018081018252600c86029092018054835260018101546001600160a01b031693830193909352600283015490820152600382015460608201526004820154608082015260058201805491929160a08401919061109c90614189565b80601f01602080910402602001604051908101604052809291908181526020018280546110c890614189565b80156111135780601f106110ea57610100808354040283529160200191611113565b820191905f5260205f20905b8154815290600101906020018083116110f657829003601f168201915b5050505050815260200160068201548152602001600782015481526020016008820154815260200160098201548152602001600a8201548152602001600b8201805480602002602001604051908101604052809291908181526020015f905b8282101561121a578382905f5260205f2001805461118f90614189565b80601f01602080910402602001604051908101604052809291908181526020018280546111bb90614189565b80156112065780601f106111dd57610100808354040283529160200191611206565b820191905f5260205f20905b8154815290600101906020018083116111e957829003601f168201915b505050505081526020019060010190611172565b50505050815250508152602001906001019061102a565b50505050905090565b600f6020525f908152604090208054819061125490614189565b80601f016020809104026020016040519081016040528092919081815260200182805461128090614189565b80156112cb5780601f106112a2576101008083540402835291602001916112cb565b820191905f5260205f20905b8154815290600101906020018083116112ae57829003601f168201915b5050505050908060010180546112e090614189565b80601f016020809104026020016040519081016040528092919081815260200182805461130c90614189565b80156113575780601f1061132e57610100808354040283529160200191611357565b820191905f5260205f20905b81548152906001019060200180831161133a57829003601f168201915b50505050509080600201805461136c90614189565b80601f016020809104026020016040519081016040528092919081815260200182805461139890614189565b80156113e35780601f106113ba576101008083540402835291602001916113e3565b820191905f5260205f20905b8154815290600101906020018083116113c657829003601f168201915b50505060038401546004850154600586015460068701546007880154600889015460098a0154600a909a015498996001600160a01b0390961698949750929550909390928b565b335f908152600860209081526040808320805482518185028101850190935280835260609492939192909184015b82821015611231575f8481526020908190206040805161016081018252600b86029092018054835260018101546001600160a01b03908116948401949094526002810154909316908201526003820154606082015260048201546080820152600582015460a0820152600682015460c0820152600782015460e0820152600882018054919291610100840191906114ee90614189565b80601f016020809104026020016040519081016040528092919081815260200182805461151a90614189565b80156115655780601f1061153c57610100808354040283529160200191611565565b820191905f5260205f20905b81548152906001019060200180831161154857829003601f168201915b5050505050815260200160098201548152602001600a8201548152505081526020019060010190611458565b6007602052815f5260405f2081815481106115aa575f80fd5b5f9182526020909120600c90910201805460018201546002830154600384015460048501546005860180549598506001600160a01b03909416965091949093919290916115f690614189565b80601f016020809104026020016040519081016040528092919081815260200182805461162290614189565b801561166d5780601f106116445761010080835404028352916020019161166d565b820191905f5260205f20905b81548152906001019060200180831161165057829003601f168201915b50505050509080600601549080600701549080600801549080600901549080600a015490508b565b600e6020525f908152604090208054600182015460028301546003840154600485015460058601805495966001600160a01b0390951695939492939192916115f690614189565b5f818152600c6020526040902060038101548154831461173e5760405162461bcd60e51b815260206004820152601160248201527f52657175657374206e6f7420666f756e6400000000000000000000000000000060448201526064016105ed565b60018201546001600160a01b0316331461179a5760405162461bcd60e51b815260206004820152601960248201527f4f6e6c7920626f72726f7765722063616e207061796261636b0000000000000060448201526064016105ed565b81600401546001146117ee5760405162461bcd60e51b815260206004820152601460248201527f52657175657374206e6f7420616363657074656400000000000000000000000060448201526064016105ed565b81600301548111156118425760405162461bcd60e51b815260206004820152601f60248201527f416d6f756e74206578636565647320626f72726f77656420637265646974730060448201526064016105ed565b5f6301e133808360060154426118589190614204565b60648560050154866003015461186e9190614217565b611878919061422e565b6118829190614217565b61188c919061422e565b6010546040517f9dc29fac000000000000000000000000000000000000000000000000000000008152336004820152602481018390529192506001600160a01b031690639dc29fac906044015f604051808303815f87803b1580156118ef575f5ffd5b505af1158015611901573d5f5f3e3d5ffd5b505060105460028601546040516340c10f1960e01b81526001600160a01b03918216600482015260248101869052911692506340c10f1991506044015f604051808303815f87803b158015611954575f5ffd5b505af1158015611966573d5f5f3e3d5ffd5b5050505080836003015f82825461197d9190614204565b909155505050505050565b335f818152600760209081526040822080546001818101835591845291832060028054600c909402909101928355908201805473ffffffffffffffffffffffffffffffffffffffff1916909417909355918201889055600382018790556004820155600581016119f88682614298565b5060068101849055600781018390555f6008820181905560098201819055600a8201558151611a3090600b83019060208501906134b2565b50600280545f908152600e6020526040902082548155600180840154908201805473ffffffffffffffffffffffffffffffffffffffff19166001600160a01b03909216919091179055818301549181019190915560038083015490820155600480830154908201558190600580820190611aac90840182614356565b5060068201548160060155600782015481600701556008820154816008015560098201548160090155600a82015481600a0155600b820181600b01908054611af5929190613506565b50506002805491505f611b07836141c1565b919050555050505050505050565b335f90815260066020526040902080611b2e8d82614298565b5060018101611b3d8c82614298565b5060028101611b4c8b82614298565b5060038101805473ffffffffffffffffffffffffffffffffffffffff19166001600160a01b038b1617905560048101889055600581018790555f60068201819055600782018190556008820181905560098201819055600a82018190556001548152600f60205260409020819080611bc48382614356565b50600181810190611bd790840182614356565b50600281810190611bea90840182614356565b50600382810154908201805473ffffffffffffffffffffffffffffffffffffffff19166001600160a01b03909216919091179055600480830154908201556005808301549082015560068083015490820155600780830154908201556008808301549082015560098083015490820155600a9182015491015560018054905f611c72836141c1565b9190505550505050505050505050505050565b600d602052815f5260405f208181548110611c9e575f80fd5b5f9182526020909120600b9091020180546001820154600283015460038401546004850154600586015460068701546007880154600889018054989b506001600160a01b039788169a50959096169793969295919490939192611d0090614189565b80601f0160208091040260200160405190810160405280929190818152602001828054611d2c90614189565b8015611d775780601f10611d4e57610100808354040283529160200191611d77565b820191905f5260205f20905b815481529060010190602001808311611d5a57829003601f168201915b50505050509080600901549080600a015490508b565b335f90815260066020526040902080611da68682614298565b5060018101611db58582614298565b5060028101611dc48482614298565b505050505050565b611e316040518061016001604052805f81526020015f6001600160a01b031681526020015f6001600160a01b031681526020015f81526020015f81526020015f81526020015f81526020015f8152602001606081526020015f81526020015f81525090565b6001600160a01b0383165f908152600860205260409020805483908110611e5a57611e5a6141d9565b5f9182526020918290206040805161016081018252600b9093029091018054835260018101546001600160a01b03908116948401949094526002810154909316908201526003820154606082015260048201546080820152600582015460a0820152600682015460c0820152600782015460e082015260088201805491929161010084019190611ee990614189565b80601f0160208091040260200160405190810160405280929190818152602001828054611f1590614189565b8015611f605780601f10611f3757610100808354040283529160200191611f60565b820191905f5260205f20905b815481529060010190602001808311611f4357829003601f168201915b5050505050815260200160098201548152602001600a8201548152505090505b92915050565b6008602052815f5260405f208181548110611c9e575f80fd5b6009602052815f5260405f208181548110611fb8575f80fd5b5f918252602090912001546001600160a01b03169150829050565b6010546040517f70a082310000000000000000000000000000000000000000000000000000000081523360048201525f916001600160a01b0316906370a0823190602401602060405180830381865afa158015612032573d5f5f3e3d5ffd5b505050506040513d601f19601f8201168201806040525081019061205691906141ed565b905090565b600b602052815f5260405f208181548110611fb8575f80fd5b335f908152600d60209081526040808320805482518185028101850190935280835260609492939192909184015b82821015611231575f8481526020908190206040805161016081018252600b86029092018054835260018101546001600160a01b03908116948401949094526002810154909316908201526003820154606082015260048201546080820152600582015460a0820152600682015460c0820152600782015460e08201526008820180549192916101008401919061213890614189565b80601f016020809104026020016040519081016040528092919081815260200182805461216490614189565b80156121af5780601f10612186576101008083540402835291602001916121af565b820191905f5260205f20905b81548152906001019060200180831161219257829003601f168201915b5050505050815260200160098201548152602001600a82015481525050815260200190600101906120a2565b5f818152600e60205260409020805482146122385760405162461bcd60e51b815260206004820152600f60248201527f436c61696d206e6f7420666f756e64000000000000000000000000000000000060448201526064016105ed565b8060030154421161228b5760405162461bcd60e51b815260206004820152601b60248201527f566f74696e6720706572696f6420686173206e6f7420656e646564000000000060448201526064016105ed565b6004810154156122dd5760405162461bcd60e51b815260206004820152601460248201527f436c61696d206973206e6f742070656e64696e6700000000000000000000000060448201526064016105ed565b80600901548160080154111561241a5760016004828101829055908201546001600160a01b039081165f8181526006602052604090819020601054600287015492516340c10f1960e01b8152958601939093526024850191909152929116906340c10f19906044015f604051808303815f87803b15801561235c575f5ffd5b505af115801561236e573d5f5f3e3d5ffd5b505050508160020154816008015f8282546123899190614176565b909155505f90505b5f848152600a6020526040902054811015612414575f848152600a6020526040812080546006918391859081106123ca576123ca6141d9565b5f9182526020808320909101546001600160a01b031683528201929092526040018120600a810180549193506005929091612406908490614176565b909155505050600101612391565b50505050565b5f5b5f838152600b602052604090205481101561249f575f838152600b602052604081208054600691839185908110612455576124556141d9565b5f9182526020808320909101546001600160a01b031683528201929092526040018120600a810180549193506005929091612491908490614176565b90915550505060010161241c565b50600260048201555050565b5f828152600e60205260409020805483146125085760405162461bcd60e51b815260206004820152600f60248201527f436c61696d206e6f7420666f756e64000000000000000000000000000000000060448201526064016105ed565b8060030154421061255b5760405162461bcd60e51b815260206004820152601760248201527f566f74696e6720706572696f642068617320656e64656400000000000000000060448201526064016105ed565b60018101546001600160a01b031633036125dd5760405162461bcd60e51b815260206004820152602960248201527f4f7267616e69736174696f6e2063616e6e6f7420766f7465206f6e206974732060448201527f6f776e20636c61696d000000000000000000000000000000000000000000000060648201526084016105ed565b60048101541561262f5760405162461bcd60e51b815260206004820152601460248201527f436c61696d206973206e6f742070656e64696e6700000000000000000000000060448201526064016105ed565b5f5b5f848152600960205260409020548110156126d1575f848152600960205260409020805433919083908110612668576126686141d9565b5f918252602090912001546001600160a01b0316036126c95760405162461bcd60e51b815260206004820152601660248201527f596f75206861766520616c726561647920766f7465640000000000000000000060448201526064016105ed565b600101612631565b505f83815260096020908152604082208054600181018255908352912001805473ffffffffffffffffffffffffffffffffffffffff1916331790558115612751575f838152600a6020908152604082208054600181018255908352912001805473ffffffffffffffffffffffffffffffffffffffff19163317905561278c565b5f838152600b6020908152604082208054600181018255908352912001805473ffffffffffffffffffffffffffffffffffffffff1916331790555b81156127ad57600881018054905f6127a3836141c1565b91905055506127c4565b600981018054905f6127be836141c1565b91905055505b600a81018054905f6127d5836141c1565b9190505550505050565b5f546040517fc32e370e0000000000000000000000000000000000000000000000000000000081526001600160a01b039091169063c32e370e9061282f9088908890889088908890600401614423565b602060405180830381865afa15801561284a573d5f5f3e3d5ffd5b505050506040513d601f19601f8201168201806040525081019061286e91906144b6565b6128ba5760405162461bcd60e51b815260206004820152600d60248201527f496e76616c69642070726f6f660000000000000000000000000000000000000060448201526064016105ed565b5f82825f8181106128cd576128cd6141d9565b9050602002013590505f838360018181106128ea576128ea6141d9565b9050602002013590505f878787878760405160200161290d959493929190614423565b60405160208183030381529060405290505f60085f336001600160a01b03166001600160a01b031681526020019081526020015f2060018160018154018082558091505003905f5260205f2090600b02019050600d5f8d6001600160a01b03166001600160a01b031681526020019081526020015f2081908060018154018082558091505060019003905f5260205f2090600b02015f909190919091505f820154815f0155600182015f9054906101000a90046001600160a01b0316816001015f6101000a8154816001600160a01b0302191690836001600160a01b03160217905550600282015f9054906101000a90046001600160a01b0316816002015f6101000a8154816001600160a01b0302191690836001600160a01b03160217905550600382015481600301556004820154816004015560058201548160050155600682015481600601556007820154816007015560088201816008019081612a749190614356565b5060098201548160090155600a82015481600a01555050600354815f018190555033816001015f6101000a8154816001600160a01b0302191690836001600160a01b031602179055508b816002015f6101000a8154816001600160a01b0302191690836001600160a01b031602179055508a81600301819055505f816004018190555089816005018190555042816006018190555083816007018190555081816008019081612b239190614298565b505f60098201819055600a8201849055600380548252600c60205260409091208254815560018084015490820180546001600160a01b0392831673ffffffffffffffffffffffffffffffffffffffff199182161790915560028086015490840180549190931691161790558183015491810191909155600480830154908201556005808301549082015560068083015490820155600780830154908201558190600880820190612bd590840182614356565b5060098281015490820155600a9182015491015560038054905f611c72836141c1565b600c6020525f908152604090208054600182015460028301546003840154600485015460058601546006870154600788015460088901805498996001600160a01b0398891699979098169795969495939492939192611d0090614189565b612cb46040518061016001604052806060815260200160608152602001606081526020015f6001600160a01b031681526020015f81526020015f81526020015f81526020015f81526020015f81526020015f81526020015f81525090565b335f908152600660205260409081902081516101608101909252805482908290612cdd90614189565b80601f0160208091040260200160405190810160405280929190818152602001828054612d0990614189565b8015612d545780601f10612d2b57610100808354040283529160200191612d54565b820191905f5260205f20905b815481529060010190602001808311612d3757829003601f168201915b50505050508152602001600182018054612d6d90614189565b80601f0160208091040260200160405190810160405280929190818152602001828054612d9990614189565b8015612de45780601f10612dbb57610100808354040283529160200191612de4565b820191905f5260205f20905b815481529060010190602001808311612dc757829003601f168201915b50505050508152602001600282018054612dfd90614189565b80601f0160208091040260200160405190810160405280929190818152602001828054612e2990614189565b8015612e745780601f10612e4b57610100808354040283529160200191612e74565b820191905f5260205f20905b815481529060010190602001808311612e5757829003601f168201915b505050918352505060038201546001600160a01b03166020820152600482015460408201526005820154606082015260068201546080820152600782015460a0820152600882015460c0820152600982015460e0820152600a9091015461010090910152919050565b60066020525f908152604090208054819061125490614189565b5f828152600c6020526040902080548314612f545760405162461bcd60e51b815260206004820152601160248201527f52657175657374206e6f7420666f756e6400000000000000000000000000000060448201526064016105ed565b60028101546001600160a01b03163314612fb05760405162461bcd60e51b815260206004820152601760248201527f4f6e6c79206c656e6465722063616e20726573706f6e6400000000000000000060448201526064016105ed565b6004810154156130025760405162461bcd60e51b815260206004820152601960248201527f5265717565737420616c726561647920726573706f6e6465640000000000000060448201526064016105ed565b81600114806130115750816002145b61305d5760405162461bcd60e51b815260206004820152601060248201527f496e76616c696420726573706f6e73650000000000000000000000000000000060448201526064016105ed565b6004810182905560018290036132035760018101546001600160a01b03165f9081526006602052604081206003830154600782018054929391929091906130a5908490614176565b9091555050600481018054905f6130bb836141c1565b909155505060028201546001600160a01b03165f908152600660208190526040822060038501549181018054919390916130f6908490614176565b9091555050600581018054905f61310c836141c1565b9091555050601054600184015460038501546040516340c10f1960e01b81526001600160a01b03928316600482015260248101919091529116906340c10f19906044015f604051808303815f87803b158015613166575f5ffd5b505af1158015613178573d5f5f3e3d5ffd5b5050601054600286015460038701546040517f9dc29fac0000000000000000000000000000000000000000000000000000000081526001600160a01b039283166004820152602481019190915291169250639dc29fac91506044015f604051808303815f87803b1580156131ea575f5ffd5b505af11580156131fc573d5f5f3e3d5ffd5b5050505050505b505050565b6132666040518061016001604052806060815260200160608152602001606081526020015f6001600160a01b031681526020015f81526020015f81526020015f81526020015f81526020015f81526020015f81526020015f81525090565b6001600160a01b0382165f90815260066020526040908190208151610160810190925280548290829061329890614189565b80601f01602080910402602001604051908101604052809291908181526020018280546132c490614189565b801561330f5780601f106132e65761010080835404028352916020019161330f565b820191905f5260205f20905b8154815290600101906020018083116132f257829003601f168201915b5050505050815260200160018201805461332890614189565b80601f016020809104026020016040519081016040528092919081815260200182805461335490614189565b801561339f5780601f106133765761010080835404028352916020019161339f565b820191905f5260205f20905b81548152906001019060200180831161338257829003601f168201915b505050505081526020016002820180546133b890614189565b80601f01602080910402602001604051908101604052809291908181526020018280546133e490614189565b801561342f5780601f106134065761010080835404028352916020019161342f565b820191905f5260205f20905b81548152906001019060200180831161341257829003601f168201915b505050918352505060038201546001600160a01b03166020820152600482015460408201526005820154606082015260068201546080820152600782015460a0820152600882015460c0820152600982015460e0820152600a909101546101009091015292915050565b600a602052815f5260405f208181548110611fb8575f80fd5b828054828255905f5260205f209081019282156134f6579160200282015b828111156134f657825182906134e69082614298565b50916020019190600101906134d0565b5061350292915061354a565b5090565b828054828255905f5260205f209081019282156134f6575f5260205f209182015b828111156134f6578161353a8482614356565b5091600101919060010190613527565b80821115613502575f61355d8282613566565b5060010161354a565b50805461357290614189565b5f825580601f10613581575050565b601f0160209004905f5260205f209081019061359d91906135a0565b50565b5b80821115613502575f81556001016135a1565b5f602082840312156135c4575f5ffd5b5035919050565b5f81518084528060208401602086015e5f602082860101526020601f19601f83011685010191505092915050565b5f82825180855260208501945060208160051b830101602085015f5b8381101561364757601f198584030188526136318383516135cb565b6020988901989093509190910190600101613615565b50909695505050505050565b805182525f602082015161367260208501826001600160a01b03169052565b5060408201516040840152606082015160608401526080820151608084015260a082015161018060a08501526136ac6101808501826135cb565b905060c083015160c085015260e083015160e08501526101008301518482036101008601526136db82826135f9565b9150506101208301516101208501526101408301516101408501526101608301516101608501528091505092915050565b602081525f61371e6020830184613653565b9392505050565b5f602082016020835280845180835260408501915060408160051b8601019250602086015f5b8281101561377c57603f19878603018452613767858351613653565b9450602093840193919091019060010161374b565b50929695505050505050565b5f602082016020835280845180835260408501915060408160051b8601019250602086015f5b8281101561377c57603f198786030184528151805160c087526137d460c08801826135cb565b9050602082015187820360208901526137ed82826135cb565b9150506040820151878203604089015261380782826135cb565b606084810151908a0152608080850151908a015260a0938401516001600160a01b03169390980192909252505060209384019391909101906001016137ae565b5f602082016020835280845180835260408501915060408160051b8601019250602086015f5b8281101561377c57603f19878603018452815180518652602081015161389e60208801826001600160a01b03169052565b5060408101516040870152606081015160608701526080810151608087015260a081015161018060a08801526138d86101808801826135cb565b905060c082015160c088015260e082015160e0880152610100820151610100880152610120820151610120880152610140820151610140880152610160820151915086810361016088015261392d81836135f9565b96505050602093840193919091019060010161386d565b61016081525f61395861016083018e6135cb565b828103602084015261396a818e6135cb565b9050828103604084015261397e818d6135cb565b6001600160a01b039b909b1660608401525050608081019790975260a087019590955260c086019390935260e0850191909152610100840152610120830152610140909101529392505050565b805182525f60208201516139ea60208501826001600160a01b03169052565b506040820151613a0560408501826001600160a01b03169052565b50606082015160608401526080820151608084015260a082015160a084015260c082015160c084015260e082015160e0840152610100820151610160610100850152613a556101608501826135cb565b90506101208301516101208501526101408301516101408501528091505092915050565b5f602082016020835280845180835260408501915060408160051b8601019250602086015f5b8281101561377c57603f19878603018452613abb8583516139cb565b94506020938401939190910190600101613a9f565b80356001600160a01b0381168114613ae6575f5ffd5b919050565b5f5f60408385031215613afc575f5ffd5b613b0583613ad0565b946020939093013593505050565b8b81526001600160a01b038b16602082015289604082015288606082015287608082015261016060a08201525f613b4e6101608301896135cb565b60c08301979097525060e0810194909452610100840192909252610120830152610140909101529695505050505050565b634e487b7160e01b5f52604160045260245ffd5b604051601f8201601f1916810167ffffffffffffffff81118282101715613bbc57613bbc613b7f565b604052919050565b5f82601f830112613bd3575f5ffd5b813567ffffffffffffffff811115613bed57613bed613b7f565b613c006020601f19601f84011601613b93565b818152846020838601011115613c14575f5ffd5b816020850160208301375f918101602001919091529392505050565b5f5f5f5f5f5f60c08789031215613c45575f5ffd5b8635955060208701359450604087013567ffffffffffffffff811115613c69575f5ffd5b613c7589828a01613bc4565b945050606087013592506080870135915060a087013567ffffffffffffffff811115613c9f575f5ffd5b8701601f81018913613caf575f5ffd5b803567ffffffffffffffff811115613cc957613cc9613b7f565b8060051b613cd960208201613b93565b9182526020818401810192908101908c841115613cf4575f5ffd5b6020850192505b83831015613d3a57823567ffffffffffffffff811115613d19575f5ffd5b613d288e602083890101613bc4565b83525060209283019290910190613cfb565b80955050505050509295509295509295565b5f5f5f5f5f5f5f5f5f5f5f6101608c8e031215613d67575f5ffd5b8b3567ffffffffffffffff811115613d7d575f5ffd5b613d898e828f01613bc4565b9b505060208c013567ffffffffffffffff811115613da5575f5ffd5b613db18e828f01613bc4565b9a505060408c013567ffffffffffffffff811115613dcd575f5ffd5b613dd98e828f01613bc4565b995050613de860608d01613ad0565b9a9d999c50979a60808101359960a0820135995060c0820135985060e0820135975061010082013596506101208201359550610140909101359350915050565b8b81526001600160a01b038b1660208201526001600160a01b038a1660408201528860608201528760808201528660a08201528560c08201528460e08201526101606101008201525f613e7f6101608301866135cb565b6101208301949094525061014001529998505050505050505050565b5f5f5f5f60808587031215613eae575f5ffd5b843567ffffffffffffffff811115613ec4575f5ffd5b613ed087828801613bc4565b945050602085013567ffffffffffffffff811115613eec575f5ffd5b613ef887828801613bc4565b935050604085013567ffffffffffffffff811115613f14575f5ffd5b613f2087828801613bc4565b949793965093946060013593505050565b602081525f61371e60208301846139cb565b5f5f60408385031215613f54575f5ffd5b50508035926020909101359150565b801515811461359d575f5ffd5b5f5f60408385031215613f81575f5ffd5b823591506020830135613f9381613f63565b809150509250929050565b8060408101831015611f80575f5ffd5b5f5f5f5f5f5f5f5f610180898b031215613fc6575f5ffd5b613fcf89613ad0565b97506020890135965060408901359550613fec8a60608b01613f9e565b945061012089018a811115613fff575f5ffd5b60a08a01945061400f8b82613f9e565b93505061016089013567ffffffffffffffff81111561402c575f5ffd5b8901601f81018b1361403c575f5ffd5b803567ffffffffffffffff811115614052575f5ffd5b8b60208260051b8401011115614066575f5ffd5b989b979a50959850939692959194602001935050565b602081525f825161016060208401526140996101808401826135cb565b90506020840151601f198483030160408501526140b682826135cb565b9150506040840151601f198483030160608501526140d482826135cb565b91505060608401516140f160808501826001600160a01b03169052565b50608084015160a084015260a084015160c084015260c084015160e084015260e08401516101008401526101008401516101208401526101208401516101408401526101408401516101608401528091505092915050565b5f60208284031215614159575f5ffd5b61371e82613ad0565b634e487b7160e01b5f52601160045260245ffd5b80820180821115611f8057611f80614162565b600181811c9082168061419d57607f821691505b6020821081036141bb57634e487b7160e01b5f52602260045260245ffd5b50919050565b5f600182016141d2576141d2614162565b5060010190565b634e487b7160e01b5f52603260045260245ffd5b5f602082840312156141fd575f5ffd5b5051919050565b81810381811115611f8057611f80614162565b8082028115828204841417611f8057611f80614162565b5f8261424857634e487b7160e01b5f52601260045260245ffd5b500490565b601f82111561320357805f5260205f20601f840160051c810160208510156142725750805b601f840160051c820191505b81811015614291575f815560010161427e565b5050505050565b815167ffffffffffffffff8111156142b2576142b2613b7f565b6142c6816142c08454614189565b8461424d565b6020601f8211600181146142fb575f83156142e15750848201515b600184901b5f19600386901b1c198216175b855550614291565b5f84815260208120601f198516915b8281101561432a578785015182556020948501946001909201910161430a565b508482101561434757868401515f19600387901b60f8161c191681555b50505050600190811b01905550565b818103614361575050565b61436b8254614189565b67ffffffffffffffff81111561438357614383613b7f565b614391816142c08454614189565b5f601f8211600181146143c0575f83156142e1575081850154600184901b5f19600386901b1c198216176142f3565b5f8581526020808220868352908220601f198616925b838110156143f657828601548255600195860195909101906020016143d6565b508583101561441357818501545f19600388901b60f8161c191681555b5050505050600190811b01905550565b60408682375f60408201865f5b60028110156144515760408284376040928301929190910190600101614430565b50505060408560c0840137610120610100830152826101208301527f07ffffffffffffffffffffffffffffffffffffffffffffffffffffffffffffff831115614498575f5ffd5b8260051b808561014085013791909101610140019695505050505050565b5f602082840312156144c6575f5ffd5b815161371e81613f6356fea2646970667358221220e0ceee5ce6b43abea2664cf5ee20dcf3f6720e4a85fbdd1e2b9493f15615774564736f6c634300081c0033","linkReferences":{}},"methodIdentifiers":{"addressToClaims(address,uint256)":"30d4a63a","addressToLendRequests(address,uint256)":"97d4e30c","addressToLendRequestsLenderPOV(address,uint256)":"6f9c6eba","addressToOrganisation(address)":"e6767a4b","carbonToken()":"82a71ef2","carbonTokenAddress()":"cd8692b0","claimIdToClaim(uint256)":"437b7837","claimIdToVoters(uint256,uint256)":"99758ef2","claimIdToVotersNo(uint256,uint256)":"9d8eb84e","claimIdToVotersYes(uint256,uint256)":"fbd1b396","createClaim(uint256,uint256,string,uint256,uint256,string[])":"66f59cf7","createLendRequest(address,uint256,uint256,uint256[2],uint256[2][2],uint256[2],uint256[])":"cdc6a618","createOrganisation(string,string,string,address,uint256,uint256,uint256,uint256,uint256,uint256,uint256)":"67aa46b5","getAllOrganisationDetails()":"20e0df2d","getBalanceOfOrganisation()":"9ae57ee3","getClaimDetailsPublic(uint256)":"115dbad6","getClaimsByStatus(uint256)":"1aa2d74d","getLendRequestDetails(address,uint256)":"96b946d8","getMyOrganisationDetails()":"e4169866","getOrganisationDetails(address)":"f9faec00","getUserClaims()":"216e14fb","getUserLendRequests()":"2b2a2a14","getUserLendRequestsLenderPOV()":"bb253154","handleVotingResult(uint256)":"c6fee314","lendrequestIdToLendRequest(uint256)":"d54f3a41","organisationIDToOrganisation(uint256)":"23d4b980","paybackLendRequest(uint256)":"625d4201","recordOrganisationEmissions(uint256)":"00c59439","respondToLendRequest(uint256,uint256)":"efd441d5","updateOrganisationDetails(string,string,string,uint256)":"8ab7e6b5","verifier()":"2b7ac3f3","verifierProofAddress()":"88da10ae","vote(uint256,bool)":"c9d27afe"},"id":28}